{
  "contractName": "Document",
  "abi": [
    {
      "inputs": [
        {
          "internalType": "string",
          "name": "newwords",
          "type": "string"
        }
      ],
      "name": "setContent",
      "outputs": [],
      "stateMutability": "nonpayable",
      "type": "function"
    },
    {
      "inputs": [],
      "name": "getContent",
      "outputs": [
        {
          "internalType": "string",
          "name": "",
          "type": "string"
        }
      ],
      "stateMutability": "view",
      "type": "function",
      "constant": true
    },
    {
      "inputs": [
        {
          "internalType": "string",
          "name": "newwords",
          "type": "string"
        }
      ],
      "name": "setIpfsCid",
      "outputs": [],
      "stateMutability": "nonpayable",
      "type": "function"
    },
    {
      "inputs": [],
      "name": "getIpfsCid",
      "outputs": [
        {
          "internalType": "string",
          "name": "",
          "type": "string"
        }
      ],
      "stateMutability": "view",
      "type": "function",
      "constant": true
    },
    {
      "inputs": [
        {
          "internalType": "bytes",
          "name": "_message",
          "type": "bytes"
        },
        {
          "internalType": "uint8",
          "name": "_v",
          "type": "uint8"
        },
        {
          "internalType": "bytes32",
          "name": "_r",
          "type": "bytes32"
        },
        {
          "internalType": "bytes32",
          "name": "_s",
          "type": "bytes32"
        }
      ],
      "name": "verify",
      "outputs": [
        {
          "internalType": "address",
          "name": "",
          "type": "address"
        }
      ],
      "stateMutability": "pure",
      "type": "function",
      "constant": true
    }
  ],
  "bytecode": "0x608060405234801561001057600080fd5b50610965806100206000396000f3fe608060405234801561001057600080fd5b50600436106100575760003560e01c80632fd1603a1461005c5780633be8fd6a1461008c57806354181ded146100a857806359016c79146100c6578063d16830f1146100e4575b600080fd5b610076600480360381019061007191906104ce565b610100565b6040516100839190610655565b60405180910390f35b6100a660048036038101906100a19190610551565b6101c9565b005b6100b06101e3565b6040516100bd91906106b5565b60405180910390f35b6100ce610275565b6040516100db91906106b5565b60405180910390f35b6100fe60048036038101906100f99190610551565b610307565b005b6000806040518060400160405280601c81526020017f19457468657265756d205369676e6564204d6573736167653a0a333200000000815250905060008187604051602001610150929190610631565b60405160208183030381529060405280519060200120905060006001828888886040516000815260200160405260405161018d9493929190610670565b6020604051602081039080840390855afa1580156101af573d6000803e3d6000fd5b505050602060405103519050809350505050949350505050565b80600090805190602001906101df929190610321565b5050565b6060600180546101f29061081b565b80601f016020809104026020016040519081016040528092919081815260200182805461021e9061081b565b801561026b5780601f106102405761010080835404028352916020019161026b565b820191906000526020600020905b81548152906001019060200180831161024e57829003601f168201915b5050505050905090565b6060600080546102849061081b565b80601f01602080910402602001604051908101604052809291908181526020018280546102b09061081b565b80156102fd5780601f106102d2576101008083540402835291602001916102fd565b820191906000526020600020905b8154815290600101906020018083116102e057829003601f168201915b5050505050905090565b806001908051906020019061031d929190610321565b5050565b82805461032d9061081b565b90600052602060002090601f01602090048101928261034f5760008555610396565b82601f1061036857805160ff1916838001178555610396565b82800160010185558215610396579182015b8281111561039557825182559160200191906001019061037a565b5b5090506103a391906103a7565b5090565b5b808211156103c05760008160009055506001016103a8565b5090565b60006103d76103d2846106fc565b6106d7565b9050828152602081018484840111156103f3576103f26108e1565b5b6103fe8482856107d9565b509392505050565b60006104196104148461072d565b6106d7565b905082815260208101848484011115610435576104346108e1565b5b6104408482856107d9565b509392505050565b60008135905061045781610901565b92915050565b600082601f830112610472576104716108dc565b5b81356104828482602086016103c4565b91505092915050565b600082601f8301126104a05761049f6108dc565b5b81356104b0848260208601610406565b91505092915050565b6000813590506104c881610918565b92915050565b600080600080608085870312156104e8576104e76108eb565b5b600085013567ffffffffffffffff811115610506576105056108e6565b5b6105128782880161045d565b9450506020610523878288016104b9565b935050604061053487828801610448565b925050606061054587828801610448565b91505092959194509250565b600060208284031215610567576105666108eb565b5b600082013567ffffffffffffffff811115610585576105846108e6565b5b6105918482850161048b565b91505092915050565b6105a381610790565b82525050565b6105b2816107a2565b82525050565b60006105c38261075e565b6105cd8185610774565b93506105dd8185602086016107e8565b80840191505092915050565b60006105f482610769565b6105fe818561077f565b935061060e8185602086016107e8565b610617816108f0565b840191505092915050565b61062b816107cc565b82525050565b600061063d82856105b8565b915061064982846105b8565b91508190509392505050565b600060208201905061066a600083018461059a565b92915050565b600060808201905061068560008301876105a9565b6106926020830186610622565b61069f60408301856105a9565b6106ac60608301846105a9565b95945050505050565b600060208201905081810360008301526106cf81846105e9565b905092915050565b60006106e16106f2565b90506106ed828261084d565b919050565b6000604051905090565b600067ffffffffffffffff821115610717576107166108ad565b5b610720826108f0565b9050602081019050919050565b600067ffffffffffffffff821115610748576107476108ad565b5b610751826108f0565b9050602081019050919050565b600081519050919050565b600081519050919050565b600081905092915050565b600082825260208201905092915050565b600061079b826107ac565b9050919050565b6000819050919050565b600073ffffffffffffffffffffffffffffffffffffffff82169050919050565b600060ff82169050919050565b82818337600083830152505050565b60005b838110156108065780820151818401526020810190506107eb565b83811115610815576000848401525b50505050565b6000600282049050600182168061083357607f821691505b602082108114156108475761084661087e565b5b50919050565b610856826108f0565b810181811067ffffffffffffffff82111715610875576108746108ad565b5b80604052505050565b7f4e487b7100000000000000000000000000000000000000000000000000000000600052602260045260246000fd5b7f4e487b7100000000000000000000000000000000000000000000000000000000600052604160045260246000fd5b600080fd5b600080fd5b600080fd5b600080fd5b6000601f19601f8301169050919050565b61090a816107a2565b811461091557600080fd5b50565b610921816107cc565b811461092c57600080fd5b5056fea264697066735822122020f5ee4d6a2c43a978e537aeed294a6b019da02dbadf5fff2cb2213eeefedcd264736f6c63430008070033",
  "immutableReferences": {},
  "source": "// SPDX-License-Identifier: GPL-3.0\n\npragma solidity >=0.7.0 <0.9.0;\n\n/**\n * @title Document words\n * @dev Store & retrieve value in a variable\n * @custom:dev-run-script ./scripts/deploy_with_ethers.ts\n */\ncontract Document {\n    string content;\n    string documentIpfsCid;\n\n    /**\n     * @dev Store value in variable\n     * @param newwords value to store\n     */\n    function setContent(string memory newwords) public {\n        content = newwords;\n    }\n\n    /**\n     * @dev Return value\n     * @return value of 'content'\n     */\n    function getContent() public view returns (string memory) {\n        return content;\n    }\n\n    /**\n     * @dev Store value in variable documentIpfsCid\n     * @param newwords value to store\n     */\n    function setIpfsCid(string memory newwords) public {\n        documentIpfsCid = newwords;\n    }\n\n    /**\n     * @dev Return value\n     * @return value of 'documentIpfsCid'\n     */\n    function getIpfsCid() public view returns (string memory) {\n        return documentIpfsCid;\n    }\n\n\n    /**\n     * @dev verify encryted data\n     * @param _message h = web3.utils.soliditySha3(document);signature = await web3.eth.sign(h, defaultAcc);\n     * @param _v \"0x\" + signature.slice(130, 132); web3.utils.toDecimal(v); v + 27;\n     * @param _r signature.slice(0, 66);\n     * @param _s \"0x\" + signature.slice(66, 130);\n     */\n    function verify(\n        bytes memory _message,\n        uint8 _v,\n        bytes32 _r,\n        bytes32 _s\n    ) public pure returns (address) {\n        bytes memory prefix = \"\\x19Ethereum Signed Message:\\n32\";\n        bytes32 prefixedHash = keccak256(abi.encodePacked(prefix,_message));\n        address signer = ecrecover(prefixedHash, _v, _r, _s);\n        return signer;\n    }\n}\n",
  "sourcePath": "c:\\Users\\chris\\OneDrive\\dal teach\\6313\\csci6313-a1-tutorial\\contracts\\Document_ipfs.sol",
  "compiler": {
    "name": "solc",
    "version": "0.8.7+commit.e28d00a7.Emscripten.clang"
  },
  "schemaVersion": "3.4.7",
  "updatedAt": "2022-05-23T19:51:53.791Z",
  "networkType": "ethereum",
  "devdoc": {
    "custom:dev-run-script": "./scripts/deploy_with_ethers.ts",
    "details": "Store & retrieve value in a variable",
    "kind": "dev",
    "methods": {
      "getContent()": {
        "details": "Return value",
        "returns": {
          "_0": "value of 'content'"
        }
      },
      "getIpfsCid()": {
        "details": "Return value",
        "returns": {
          "_0": "value of 'documentIpfsCid'"
        }
      },
      "setContent(string)": {
        "details": "Store value in variable",
        "params": {
          "newwords": "value to store"
        }
      },
      "setIpfsCid(string)": {
        "details": "Store value in variable documentIpfsCid",
        "params": {
          "newwords": "value to store"
        }
      },
      "verify(bytes,uint8,bytes32,bytes32)": {
        "details": "verify encryted data",
        "params": {
          "_message": "h = web3.utils.soliditySha3(document);signature = await web3.eth.sign(h, defaultAcc);",
          "_r": "signature.slice(0, 66);",
          "_s": "\"0x\" + signature.slice(66, 130);",
          "_v": "\"0x\" + signature.slice(130, 132); web3.utils.toDecimal(v); v + 27;"
        }
      }
    },
    "title": "Document words",
    "version": 1
  },
  "userdoc": {
    "kind": "user",
    "methods": {},
    "version": 1
  }
}